{
  "contractName": "UploadMusic",
  "abi": [
    {
      "constant": false,
      "inputs": [
        {
          "internalType": "string",
          "name": "_title",
          "type": "string"
        },
        {
          "internalType": "string",
          "name": "_data",
          "type": "string"
        },
        {
          "internalType": "string",
          "name": "_albumArt",
          "type": "string"
        },
        {
          "internalType": "string",
          "name": "_description",
          "type": "string"
        }
      ],
      "name": "uploadMusic",
      "outputs": [],
      "payable": false,
      "stateMutability": "nonpayable",
      "type": "function"
    },
    {
      "constant": true,
      "inputs": [
        {
          "internalType": "address",
          "name": "_owner",
          "type": "address"
        }
      ],
      "name": "getMusicByOwner",
      "outputs": [
        {
          "internalType": "uint256[]",
          "name": "",
          "type": "uint256[]"
        }
      ],
      "payable": false,
      "stateMutability": "view",
      "type": "function"
    },
    {
      "constant": true,
      "inputs": [
        {
          "internalType": "uint256",
          "name": "_id",
          "type": "uint256"
        }
      ],
      "name": "getTitle",
      "outputs": [
        {
          "internalType": "string",
          "name": "",
          "type": "string"
        }
      ],
      "payable": false,
      "stateMutability": "view",
      "type": "function"
    },
    {
      "constant": true,
      "inputs": [
        {
          "internalType": "uint256",
          "name": "_id",
          "type": "uint256"
        }
      ],
      "name": "getMusic",
      "outputs": [
        {
          "internalType": "string",
          "name": "",
          "type": "string"
        }
      ],
      "payable": false,
      "stateMutability": "view",
      "type": "function"
    },
    {
      "constant": true,
      "inputs": [
        {
          "internalType": "uint256",
          "name": "_id",
          "type": "uint256"
        }
      ],
      "name": "getAlbumArt",
      "outputs": [
        {
          "internalType": "string",
          "name": "",
          "type": "string"
        }
      ],
      "payable": false,
      "stateMutability": "view",
      "type": "function"
    },
    {
      "constant": true,
      "inputs": [
        {
          "internalType": "uint256",
          "name": "_id",
          "type": "uint256"
        }
      ],
      "name": "getDescription",
      "outputs": [
        {
          "internalType": "string",
          "name": "",
          "type": "string"
        }
      ],
      "payable": false,
      "stateMutability": "view",
      "type": "function"
    },
    {
      "constant": false,
      "inputs": [
        {
          "internalType": "uint256",
          "name": "_id",
          "type": "uint256"
        },
        {
          "internalType": "string",
          "name": "_newTitle",
          "type": "string"
        }
      ],
      "name": "changeTitle",
      "outputs": [],
      "payable": false,
      "stateMutability": "nonpayable",
      "type": "function"
    },
    {
      "constant": false,
      "inputs": [
        {
          "internalType": "uint256",
          "name": "_id",
          "type": "uint256"
        },
        {
          "internalType": "string",
          "name": "_newAlbumArt",
          "type": "string"
        }
      ],
      "name": "changeAlbumArt",
      "outputs": [],
      "payable": false,
      "stateMutability": "nonpayable",
      "type": "function"
    },
    {
      "constant": false,
      "inputs": [
        {
          "internalType": "uint256",
          "name": "_id",
          "type": "uint256"
        },
        {
          "internalType": "string",
          "name": "_newDescription",
          "type": "string"
        }
      ],
      "name": "changeDescription",
      "outputs": [],
      "payable": false,
      "stateMutability": "nonpayable",
      "type": "function"
    },
    {
      "constant": false,
      "inputs": [
        {
          "internalType": "uint256",
          "name": "_id",
          "type": "uint256"
        }
      ],
      "name": "thumbsUp",
      "outputs": [],
      "payable": false,
      "stateMutability": "nonpayable",
      "type": "function"
    },
    {
      "constant": true,
      "inputs": [
        {
          "internalType": "uint256",
          "name": "_id",
          "type": "uint256"
        }
      ],
      "name": "totalLike",
      "outputs": [
        {
          "internalType": "uint256",
          "name": "",
          "type": "uint256"
        }
      ],
      "payable": false,
      "stateMutability": "view",
      "type": "function"
    }
  ],
  "bytecode": "0x608060405234801561001057600080fd5b50611129806100206000396000f3fe608060405234801561001057600080fd5b50600436106100a95760003560e01c80638ac85869116100715780638ac8586914610388578063929a79b11461044d578063b1ddeab0146104f4578063c5587a7114610774578063de6a06ed1461081b578063e1d0517e146108e0576100a9565b80632c01c1fc146100ae5780634770ff8f146101735780634925ec551461021a578063497590f3146102c15780637d9dfed41461035a575b600080fd5b610171600480360360408110156100c457600080fd5b8101908080359060200190929190803590602001906401000000008111156100eb57600080fd5b8201836020820111156100fd57600080fd5b8035906020019184600183028401116401000000008311171561011f57600080fd5b91908080601f016020809104026020016040519081016040528093929190818152602001838380828437600081840152601f19601f820116905080830192505050505050509192919290505050610922565b005b61019f6004803603602081101561018957600080fd5b8101908080359060200190929190505050610959565b6040518080602001828103825283818151815260200191508051906020019080838360005b838110156101df5780820151818401526020810190506101c4565b50505050905090810190601f16801561020c5780820380516001836020036101000a031916815260200191505b509250505060405180910390f35b6102466004803603602081101561023057600080fd5b8101908080359060200190929190505050610a19565b6040518080602001828103825283818151815260200191508051906020019080838360005b8381101561028657808201518184015260208101905061026b565b50505050905090810190601f1680156102b35780820380516001836020036101000a031916815260200191505b509250505060405180910390f35b610303600480360360208110156102d757600080fd5b81019080803573ffffffffffffffffffffffffffffffffffffffff169060200190929190505050610ad9565b6040518080602001828103825283818151815260200191508051906020019060200280838360005b8381101561034657808201518184015260208101905061032b565b505050509050019250505060405180910390f35b6103866004803603602081101561037057600080fd5b8101908080359060200190929190505050610c05565b005b61044b6004803603604081101561039e57600080fd5b8101908080359060200190929190803590602001906401000000008111156103c557600080fd5b8201836020820111156103d757600080fd5b803590602001918460018302840111640100000000831117156103f957600080fd5b91908080601f016020809104026020016040519081016040528093929190818152602001838380828437600081840152601f19601f820116905080830192505050505050509192919290505050610c36565b005b6104796004803603602081101561046357600080fd5b8101908080359060200190929190505050610c6d565b6040518080602001828103825283818151815260200191508051906020019080838360005b838110156104b957808201518184015260208101905061049e565b50505050905090810190601f1680156104e65780820380516001836020036101000a031916815260200191505b509250505060405180910390f35b6107726004803603608081101561050a57600080fd5b810190808035906020019064010000000081111561052757600080fd5b82018360208201111561053957600080fd5b8035906020019184600183028401116401000000008311171561055b57600080fd5b91908080601f016020809104026020016040519081016040528093929190818152602001838380828437600081840152601f19601f820116905080830192505050505050509192919290803590602001906401000000008111156105be57600080fd5b8201836020820111156105d057600080fd5b803590602001918460018302840111640100000000831117156105f257600080fd5b91908080601f016020809104026020016040519081016040528093929190818152602001838380828437600081840152601f19601f8201169050808301925050505050505091929192908035906020019064010000000081111561065557600080fd5b82018360208201111561066757600080fd5b8035906020019184600183028401116401000000008311171561068957600080fd5b91908080601f016020809104026020016040519081016040528093929190818152602001838380828437600081840152601f19601f820116905080830192505050505050509192919290803590602001906401000000008111156106ec57600080fd5b8201836020820111156106fe57600080fd5b8035906020019184600183028401116401000000008311171561072057600080fd5b91908080601f016020809104026020016040519081016040528093929190818152602001838380828437600081840152601f19601f820116905080830192505050505050509192919290505050610d2d565b005b6107a06004803603602081101561078a57600080fd5b8101908080359060200190929190505050610eb0565b6040518080602001828103825283818151815260200191508051906020019080838360005b838110156107e05780820151818401526020810190506107c5565b50505050905090810190601f16801561080d5780820380516001836020036101000a031916815260200191505b509250505060405180910390f35b6108de6004803603604081101561083157600080fd5b81019080803590602001909291908035906020019064010000000081111561085857600080fd5b82018360208201111561086a57600080fd5b8035906020019184600183028401116401000000008311171561088c57600080fd5b91908080601f016020809104026020016040519081016040528093929190818152602001838380828437600081840152601f19601f820116905080830192505050505050509192919290505050610f70565b005b61090c600480360360208110156108f657600080fd5b8101908080359060200190929190505050610fa7565b6040518082815260200191505060405180910390f35b806002838154811061093057fe5b90600052602060002090600502016002019080519060200190610954929190610fcf565b505050565b60606002828154811061096857fe5b90600052602060002090600502016001018054600181600116156101000203166002900480601f016020809104026020016040519081016040528092919081815260200182805460018160011615610100020316600290048015610a0d5780601f106109e257610100808354040283529160200191610a0d565b820191906000526020600020905b8154815290600101906020018083116109f057829003601f168201915b50505050509050919050565b606060028281548110610a2857fe5b90600052602060002090600502016003018054600181600116156101000203166002900480601f016020809104026020016040519081016040528092919081815260200182805460018160011615610100020316600290048015610acd5780601f10610aa257610100808354040283529160200191610acd565b820191906000526020600020905b815481529060010190602001808311610ab057829003601f168201915b50505050509050919050565b606080600160008473ffffffffffffffffffffffffffffffffffffffff1673ffffffffffffffffffffffffffffffffffffffff16815260200190815260200160002054604051908082528060200260200182016040528015610b4a5781602001602082028038833980820191505090505b509050600080905060008090505b600280549050811015610bfa578473ffffffffffffffffffffffffffffffffffffffff1660008083815260200190815260200160002060009054906101000a900473ffffffffffffffffffffffffffffffffffffffff1673ffffffffffffffffffffffffffffffffffffffff161415610bed5780838381518110610bd857fe5b60200260200101818152505081806001019250505b8080600101915050610b58565b508192505050919050565b60028181548110610c1257fe5b90600052602060002090600502016004016000815480929190600101919050555050565b8060028381548110610c4457fe5b90600052602060002090600502016000019080519060200190610c68929190610fcf565b505050565b606060028281548110610c7c57fe5b90600052602060002090600502016000018054600181600116156101000203166002900480601f016020809104026020016040519081016040528092919081815260200182805460018160011615610100020316600290048015610d215780601f10610cf657610100808354040283529160200191610d21565b820191906000526020600020905b815481529060010190602001808311610d0457829003601f168201915b50505050509050919050565b6000600160026040518060a001604052808881526020018781526020018681526020018581526020016000815250908060018154018082558091505090600182039060005260206000209060050201600090919290919091506000820151816000019080519060200190610da292919061104f565b506020820151816001019080519060200190610dbf92919061104f565b506040820151816002019080519060200190610ddc92919061104f565b506060820151816003019080519060200190610df992919061104f565b506080820151816004015550500390503360008083815260200190815260200160002060006101000a81548173ffffffffffffffffffffffffffffffffffffffff021916908373ffffffffffffffffffffffffffffffffffffffff160217905550600160003373ffffffffffffffffffffffffffffffffffffffff1673ffffffffffffffffffffffffffffffffffffffff168152602001908152602001600020600081548092919060010191905055505050505050565b606060028281548110610ebf57fe5b90600052602060002090600502016002018054600181600116156101000203166002900480601f016020809104026020016040519081016040528092919081815260200182805460018160011615610100020316600290048015610f645780601f10610f3957610100808354040283529160200191610f64565b820191906000526020600020905b815481529060010190602001808311610f4757829003601f168201915b50505050509050919050565b8060028381548110610f7e57fe5b90600052602060002090600502016003019080519060200190610fa2929190610fcf565b505050565b600060028281548110610fb657fe5b9060005260206000209060050201600401549050919050565b828054600181600116156101000203166002900490600052602060002090601f016020900481019282601f1061101057805160ff191683800117855561103e565b8280016001018555821561103e579182015b8281111561103d578251825591602001919060010190611022565b5b50905061104b91906110cf565b5090565b828054600181600116156101000203166002900490600052602060002090601f016020900481019282601f1061109057805160ff19168380011785556110be565b828001600101855582156110be579182015b828111156110bd5782518255916020019190600101906110a2565b5b5090506110cb91906110cf565b5090565b6110f191905b808211156110ed5760008160009055506001016110d5565b5090565b9056fea265627a7a7231582029da66235ee75ba4dcce19a640d63e3959cea7911bc1db784adbbc14e81dd67d64736f6c63430005100032",
  "source": "pragma solidity >=0.4.25 <0.7.0;\r\n\r\ncontract UploadMusic {\r\n\tstruct Music{\r\n\t\tstring title;\r\n\t\tstring data;\r\n\t\tstring albumArt;\r\n\t\tstring description;\r\n\t\tuint like;\r\n\t}\r\n\tmapping (uint => address) idToOwner;\r\n\tmapping (address => uint) musicCount;\r\n\tMusic[] musicArray;\r\n\r\n\tfunction uploadMusic(string memory _title, string memory _data, string memory _albumArt, string memory _description) public {\r\n\t\tuint id = musicArray.push(Music(_title, _data, _albumArt, _description, 0)) - 1;\r\n\t\tidToOwner[id] = msg.sender;\r\n        musicCount[msg.sender]++;\r\n\t}\r\n\tfunction getMusicByOwner(address _owner) external view returns(uint[] memory) {\r\n\t\tuint[] memory result = new uint[](musicCount[_owner]);\r\n\t\tuint counter = 0;\r\n\t\tfor (uint i = 0; i < musicArray.length; i++) {\r\n\t\t\tif (idToOwner[i] == _owner) {\r\n\t\t\t\tresult[counter] = i;\r\n\t\t\t\tcounter++;\r\n\t\t\t}\r\n\t\t}\r\n\t\treturn result;\r\n\t}\r\n\t//mapping\r\n\t// function musicOwner(uint _id) public view returns(address) {\r\n\t// \treturn idToOwner[_id];\r\n\t// }\r\n\t// function musicCount(address _address) public view returns(uint) {\r\n\t// \treturn musicCount[_address];\r\n\t// }\r\n\r\n\t//get\r\n\tfunction getTitle(uint _id) public view returns(string memory) {\r\n\t\treturn musicArray[_id].title;\r\n\t}\r\n\tfunction getMusic(uint _id) public view returns(string memory) {\r\n\t\treturn musicArray[_id].data;\r\n\t}\r\n\tfunction getAlbumArt(uint _id) public view returns(string memory) {\r\n\t\treturn musicArray[_id].albumArt;\r\n\t}\r\n\tfunction getDescription(uint _id) public view returns(string memory) {\r\n\t\treturn musicArray[_id].description;\r\n\t}\r\n\t//change\r\n\tfunction changeTitle (uint _id, string memory _newTitle) public {\r\n\t\tmusicArray[_id].title = _newTitle;\r\n\t}\r\n\tfunction changeAlbumArt (uint _id, string memory _newAlbumArt) public {\r\n\t\tmusicArray[_id].albumArt = _newAlbumArt;\r\n\t}\r\n\tfunction changeDescription (uint _id, string memory _newDescription) public {\r\n\t\tmusicArray[_id].description = _newDescription;\r\n\t}\r\n\t//like\r\n\tfunction thumbsUp (uint _id) public {\r\n\t\tmusicArray[_id].like ++;\r\n\t}\r\n\tfunction totalLike(uint _id) public view returns(uint) {\r\n\t\treturn musicArray[_id].like;\r\n\t}\r\n}",
  "sourcePath": "D:\\NTU\\NMLab\\Webpage\\EthMusic\\contracts\\UploadMusic.sol",
  "compiler": {
    "name": "solc",
    "version": "0.5.16+commit.9c3226ce.Emscripten.clang"
  },
  "schemaVersion": "3.1.0",
  "updatedAt": "2020-06-09T05:55:02.311Z",
  "networkType": "ethereum",
  "devdoc": {
    "methods": {}
  },
  "userdoc": {
    "methods": {}
  }
}