{
  "contractName": "UploadMusic",
  "abi": [
    {
      "constant": false,
      "inputs": [
        {
          "internalType": "string",
          "name": "_title",
          "type": "string"
        },
        {
          "internalType": "string",
          "name": "_data",
          "type": "string"
        },
        {
          "internalType": "string",
          "name": "_description",
          "type": "string"
        }
      ],
      "name": "uploadMusic",
      "outputs": [],
      "payable": false,
      "stateMutability": "nonpayable",
      "type": "function"
    },
    {
      "constant": true,
      "inputs": [
        {
          "internalType": "uint256",
          "name": "_id",
          "type": "uint256"
        }
      ],
      "name": "musicOwner",
      "outputs": [
        {
          "internalType": "address",
          "name": "",
          "type": "address"
        }
      ],
      "payable": false,
      "stateMutability": "view",
      "type": "function"
    },
    {
      "constant": true,
      "inputs": [
        {
          "internalType": "uint256",
          "name": "_id",
          "type": "uint256"
        }
      ],
      "name": "getMusic",
      "outputs": [
        {
          "internalType": "string",
          "name": "",
          "type": "string"
        }
      ],
      "payable": false,
      "stateMutability": "view",
      "type": "function"
    },
    {
      "constant": true,
      "inputs": [
        {
          "internalType": "uint256",
          "name": "_id",
          "type": "uint256"
        }
      ],
      "name": "getTitle",
      "outputs": [
        {
          "internalType": "string",
          "name": "",
          "type": "string"
        }
      ],
      "payable": false,
      "stateMutability": "view",
      "type": "function"
    },
    {
      "constant": true,
      "inputs": [
        {
          "internalType": "uint256",
          "name": "_id",
          "type": "uint256"
        }
      ],
      "name": "getDescription",
      "outputs": [
        {
          "internalType": "string",
          "name": "",
          "type": "string"
        }
      ],
      "payable": false,
      "stateMutability": "view",
      "type": "function"
    },
    {
      "constant": false,
      "inputs": [
        {
          "internalType": "uint256",
          "name": "_id",
          "type": "uint256"
        },
        {
          "internalType": "string",
          "name": "_newTitle",
          "type": "string"
        }
      ],
      "name": "changeTitle",
      "outputs": [],
      "payable": false,
      "stateMutability": "nonpayable",
      "type": "function"
    },
    {
      "constant": false,
      "inputs": [
        {
          "internalType": "uint256",
          "name": "_id",
          "type": "uint256"
        },
        {
          "internalType": "string",
          "name": "_newDescription",
          "type": "string"
        }
      ],
      "name": "changeDescription",
      "outputs": [],
      "payable": false,
      "stateMutability": "nonpayable",
      "type": "function"
    },
    {
      "constant": false,
      "inputs": [
        {
          "internalType": "uint256",
          "name": "_id",
          "type": "uint256"
        }
      ],
      "name": "thumbsUp",
      "outputs": [],
      "payable": false,
      "stateMutability": "nonpayable",
      "type": "function"
    },
    {
      "constant": true,
      "inputs": [
        {
          "internalType": "uint256",
          "name": "_id",
          "type": "uint256"
        }
      ],
      "name": "totalLike",
      "outputs": [
        {
          "internalType": "uint256",
          "name": "",
          "type": "uint256"
        }
      ],
      "payable": false,
      "stateMutability": "view",
      "type": "function"
    }
  ],
  "bytecode": "0x608060405234801561001057600080fd5b50610d03806100206000396000f3fe608060405234801561001057600080fd5b50600436106100935760003560e01c80638ac85869116100665780638ac85869146103fd578063929a79b1146104c2578063c25e063714610569578063de6a06ed146105d7578063e1d0517e1461069c57610093565b8063048e438b146100985780634770ff8f146102815780634925ec55146103285780637d9dfed4146103cf575b600080fd5b61027f600480360360608110156100ae57600080fd5b81019080803590602001906401000000008111156100cb57600080fd5b8201836020820111156100dd57600080fd5b803590602001918460018302840111640100000000831117156100ff57600080fd5b91908080601f016020809104026020016040519081016040528093929190818152602001838380828437600081840152601f19601f8201169050808301925050505050505091929192908035906020019064010000000081111561016257600080fd5b82018360208201111561017457600080fd5b8035906020019184600183028401116401000000008311171561019657600080fd5b91908080601f016020809104026020016040519081016040528093929190818152602001838380828437600081840152601f19601f820116905080830192505050505050509192919290803590602001906401000000008111156101f957600080fd5b82018360208201111561020b57600080fd5b8035906020019184600183028401116401000000008311171561022d57600080fd5b91908080601f016020809104026020016040519081016040528093929190818152602001838380828437600081840152601f19601f8201169050808301925050505050505091929192905050506106de565b005b6102ad6004803603602081101561029757600080fd5b8101908080359060200190929190505050610866565b6040518080602001828103825283818151815260200191508051906020019080838360005b838110156102ed5780820151818401526020810190506102d2565b50505050905090810190601f16801561031a5780820380516001836020036101000a031916815260200191505b509250505060405180910390f35b6103546004803603602081101561033e57600080fd5b8101908080359060200190929190505050610926565b6040518080602001828103825283818151815260200191508051906020019080838360005b83811015610394578082015181840152602081019050610379565b50505050905090810190601f1680156103c15780820380516001836020036101000a031916815260200191505b509250505060405180910390f35b6103fb600480360360208110156103e557600080fd5b81019080803590602001909291905050506109e6565b005b6104c06004803603604081101561041357600080fd5b81019080803590602001909291908035906020019064010000000081111561043a57600080fd5b82018360208201111561044c57600080fd5b8035906020019184600183028401116401000000008311171561046e57600080fd5b91908080601f016020809104026020016040519081016040528093929190818152602001838380828437600081840152601f19601f820116905080830192505050505050509192919290505050610a17565b005b6104ee600480360360208110156104d857600080fd5b8101908080359060200190929190505050610a4e565b6040518080602001828103825283818151815260200191508051906020019080838360005b8381101561052e578082015181840152602081019050610513565b50505050905090810190601f16801561055b5780820380516001836020036101000a031916815260200191505b509250505060405180910390f35b6105956004803603602081101561057f57600080fd5b8101908080359060200190929190505050610b0e565b604051808273ffffffffffffffffffffffffffffffffffffffff1673ffffffffffffffffffffffffffffffffffffffff16815260200191505060405180910390f35b61069a600480360360408110156105ed57600080fd5b81019080803590602001909291908035906020019064010000000081111561061457600080fd5b82018360208201111561062657600080fd5b8035906020019184600183028401116401000000008311171561064857600080fd5b91908080601f016020809104026020016040519081016040528093929190818152602001838380828437600081840152601f19601f820116905080830192505050505050509192919290505050610b4a565b005b6106c8600480360360208110156106b257600080fd5b8101908080359060200190929190505050610b81565b6040518082815260200191505060405180910390f35b6000600160026040518060a001604052808781526020018681526020018581526020016000815260200160011515815250908060018154018082558091505090600182039060005260206000209060050201600090919290919091506000820151816000019080519060200190610756929190610ba9565b506020820151816001019080519060200190610773929190610ba9565b506040820151816002019080519060200190610790929190610ba9565b506060820151816003015560808201518160040160006101000a81548160ff02191690831515021790555050500390503360008083815260200190815260200160002060006101000a81548173ffffffffffffffffffffffffffffffffffffffff021916908373ffffffffffffffffffffffffffffffffffffffff160217905550600160003373ffffffffffffffffffffffffffffffffffffffff1673ffffffffffffffffffffffffffffffffffffffff1681526020019081526020016000206000815480929190600101919050555050505050565b60606002828154811061087557fe5b90600052602060002090600502016001018054600181600116156101000203166002900480601f01602080910402602001604051908101604052809291908181526020018280546001816001161561010002031660029004801561091a5780601f106108ef5761010080835404028352916020019161091a565b820191906000526020600020905b8154815290600101906020018083116108fd57829003601f168201915b50505050509050919050565b60606002828154811061093557fe5b90600052602060002090600502016002018054600181600116156101000203166002900480601f0160208091040260200160405190810160405280929190818152602001828054600181600116156101000203166002900480156109da5780601f106109af576101008083540402835291602001916109da565b820191906000526020600020905b8154815290600101906020018083116109bd57829003601f168201915b50505050509050919050565b600281815481106109f357fe5b90600052602060002090600502016003016000815480929190600101919050555050565b8060028381548110610a2557fe5b90600052602060002090600502016000019080519060200190610a49929190610c29565b505050565b606060028281548110610a5d57fe5b90600052602060002090600502016000018054600181600116156101000203166002900480601f016020809104026020016040519081016040528092919081815260200182805460018160011615610100020316600290048015610b025780601f10610ad757610100808354040283529160200191610b02565b820191906000526020600020905b815481529060010190602001808311610ae557829003601f168201915b50505050509050919050565b600080600083815260200190815260200160002060009054906101000a900473ffffffffffffffffffffffffffffffffffffffff169050919050565b8060028381548110610b5857fe5b90600052602060002090600502016002019080519060200190610b7c929190610c29565b505050565b600060028281548110610b9057fe5b9060005260206000209060050201600301549050919050565b828054600181600116156101000203166002900490600052602060002090601f016020900481019282601f10610bea57805160ff1916838001178555610c18565b82800160010185558215610c18579182015b82811115610c17578251825591602001919060010190610bfc565b5b509050610c259190610ca9565b5090565b828054600181600116156101000203166002900490600052602060002090601f016020900481019282601f10610c6a57805160ff1916838001178555610c98565b82800160010185558215610c98579182015b82811115610c97578251825591602001919060010190610c7c565b5b509050610ca59190610ca9565b5090565b610ccb91905b80821115610cc7576000816000905550600101610caf565b5090565b9056fea265627a7a72315820838f62ff54ef47b727b014bbbd1fcdd626f6d66fcf769cf79653b5c77ecbdffa64736f6c63430005100032",
  "source": "pragma solidity >=0.4.25 <0.7.0;\r\n\r\ncontract UploadMusic {\r\n\tstruct Music{\r\n\t\tstring title;\r\n\t\tstring data;\r\n\t\tstring description;\r\n\t\tuint like;\r\n\t\tbool available;\r\n\t}\r\n\tmapping (uint => address) idToOwner;\r\n\tmapping (address => uint) musicCount;\r\n\tMusic[] musicArray;\r\n\r\n\t// event Transfer(address indexed _from, address indexed _to, uint256 _value);\r\n\r\n\tfunction uploadMusic(string memory _title, string memory _data, string memory _description) public {\r\n\t\tuint id = musicArray.push(Music(_title, _data, _description, 0, true)) - 1;\r\n\t\tidToOwner[id] = msg.sender;\r\n        musicCount[msg.sender]++;\r\n\t\t// emit Transfer(msg.sender, receiver, amount);\r\n\t}\r\n\tfunction musicOwner(uint _id) public view returns(address) {\r\n\t\treturn idToOwner[_id];\r\n\t}\r\n\tfunction getMusic(uint _id) public view returns(string memory) {\r\n\t\treturn musicArray[_id].data;\r\n\t}\r\n\tfunction getTitle(uint _id) public view returns(string memory) {\r\n\t\treturn musicArray[_id].title;\r\n\t}\r\n\tfunction getDescription(uint _id) public view returns(string memory) {\r\n\t\treturn musicArray[_id].description;\r\n\t}\r\n\tfunction changeTitle (uint _id, string memory _newTitle) public {\r\n\t\tmusicArray[_id].title = _newTitle;\r\n\t}\r\n\tfunction changeDescription (uint _id, string memory _newDescription) public {\r\n\t\tmusicArray[_id].description = _newDescription;\r\n\t}\r\n\tfunction thumbsUp (uint _id) public {\r\n\t\tmusicArray[_id].like ++;\r\n\t}\r\n\tfunction totalLike(uint _id) public view returns(uint) {\r\n\t\treturn musicArray[_id].like;\r\n\t}\r\n}",
  "sourcePath": "D:\\NTU\\NMLab\\final\\contracts\\UploadMusic.sol",
  "compiler": {
    "name": "solc",
    "version": "0.5.16+commit.9c3226ce.Emscripten.clang"
  },
  "schemaVersion": "3.1.0",
  "updatedAt": "2020-05-25T05:29:42.710Z",
  "networkType": "ethereum",
  "devdoc": {
    "methods": {}
  },
  "userdoc": {
    "methods": {}
  }
}